:100000000C940F010C9437010C9437010C943701B8
:100010000C9437010C9437010C9437010C94370180
:100020000C9437010C9437010C9496320C943701E0
:100030000C9437010C9437010C9437010C94370160
:100040000C9437010C9437010C9437010C94370150
:100050000C9437010C9437010C9437010C9418144C
:100060000C9437010C94670F0C94990F0C94370182
:100070000C9437010C9437010C9437010C94370120
:100080000C9437010C9437010C9437010C94370110
:100090000C94B2110C9437010C9437010C94370175
:1000A0000C9437010C9437010C94370148154B150B
:1000B0003A153E1544156C156C156C154F155315F6
:1000C00057155D1561156C1567158C33B333AB345B
:1000D000B333AB34FF332234AB347934883400008B
:1000E000000200090F0000030401000C00000000E2
:1000F00000000000000000000000000000040802F2
:10010000011040804010204080408008020401809F
:1001100040201002011080102040402004040404FC
:10012000040304050202020204030202020206069C
:10013000060606060404020202040400000000236E
:1001400000260029002C002F0000000000250028B8
:10015000002B002E00310000000000240027002AA0
:10016000002D003000000100080002000400200003
:10017000100040008000000000010002002000107C
:100180000040008000040008000001000800020098
:100190000400200010004000800000000001000268
:1001A000002000100040008000040008000002034E
:1001B0000405010902200001010080FA0904000081
:1001C00002584200000705820320000407050103CE
:1001D00020000412011001000000207B0A00D00062
:1001E00001000000010902200001010080FA090459
:1001F00000000258420000070581032000040705A3
:10020000020320000412011001000000205E048996
:100210000221010000000100C902BF0F14141124C3
:100220001FBECFEFDAE0DEBFCDBF12E0A0E0B1E04D
:10023000E6E5FEE602C005900D92AE33B107D9F7B0
:1002400027E0AEE3B2E001C01D92A83AB207E1F7A1
:1002500011E0CFE0D1E004C02197FE010E94E93611
:10026000CC30D107C9F70E94F1020C9429370C94C5
:100270000000DF92EF92FF920F931F93CF93DF93D3
:100280007C018C01C0E0D0E0F801D1908F01CE015B
:100290000E941337D81621F06D2DCE010E941B3716
:1002A0002196C430D10581F7C701DF91CF911F910D
:1002B0000F91FF90EF90DF900895EF92FF920F93D0
:1002C0001F93CF93DF937C018C01C0E0D0E0CE017F
:1002D0000E941337F80181938F012196C430D10514
:1002E000B1F7C701DF91CF911F910F91FF90EF9070
:1002F00008950E94C43480919705882319F08130B5
:1003000081F008958091E4009091E50020913401FE
:1003100030913501821B930B049798F08AE291E0AB
:100320000EC08091E4009091E5002091240130916D
:100330002501821B930B049720F08AE191E00C9435
:10034000192F0895462F262F30E0F901EF53FC4F67
:100350009789992329F0682F81EC93E00C9400256C
:10036000220F331FF901EE5EFE4F0190F081E02D68
:100370009281992321F0682FCF010C946A2B80E0A1
:100380000895462F262F30E0F901EF53FC4F97894F
:10039000992329F0682F81EC93E00C94D525220F46
:1003A000331FF901EE5EFE4F0190F081E02D928146
:1003B000992381F0682FCF010E94932B092E000C06
:1003C000AA0BBB0B811521E892072FEFA207B207FA
:1003D00029F0089580E090E0DC01089580E090E845
:1003E000AFEFBFEF08950F931F93CF93DF93182FB5
:1003F000062F242FC42FD0E0FE01EF53FC4F878936
:10040000882331F0462F612F81EC93E00E94EE2685
:10041000CC0FDD1FCE5EDE4F88819981FC012281E9
:10042000222341F0402F612FDF91CF911F910F9137
:100430000C94BF2BDF91CF911F910F91089590E005
:10044000FC01EF53FC4F278921110AC0880F991F27
:10045000FC01EE5EFE4F0190F081E02D8281089557
:1004600081E008952E9A08952E988EBD0DB407FE52
:10047000FDCF1EBC0DB407FEFDCF0E9432028EB52B
:1004800008952E9882608EBD0DB407FEFDCF6EBD1F
:100490000DB407FEFDCF0C94320288EF0E943402A7
:1004A000807C8034A1F018F4882301F1089580380D
:1004B00019F0803CB9F0089588ED0E94340281FD66
:1004C0000BC069EC88ED0E94410282E00CC088ED0F
:1004D0000E94340281FDF5CF6BEC88ED0E94410251
:1004E00083E001C081E080938002089561ED88ED92
:1004F0000E9441021092800208950F931F93CF93A0
:10050000DF938C01269A0E943202219A229A239824
:10051000209A80E58CBD1DBC259868E188E80E9482
:10052000410260E288E70E94410260E088E70E94A1
:100530004102C0E0D0E088E60E943402219680FDAE
:1005400006C0CF3F8FEFD807B1F78FEF1DC061EC2A
:1005500088ED0E94410260E680ED0E94410264E065
:1005600088EE0E94410288EE0E94340282FFFBCF97
:10057000C8010E944D0260E288EC0E94410261E0E5
:1005800080E80E94410280E0DF91CF911F910F919E
:1005900008958BEE94E00E94DC166BEE74E08AED19
:1005A00094E00E94A2216BEE74E081EC93E00E9443
:1005B0009E246BEE74E081E793E00E94A82A6BEE24
:1005C00074E081E293E00E94A82A6BEE74E081ED72
:1005D00092E00E94A82A6BEE74E081E892E00C940D
:1005E000A82ACF93DF9300D000D000D0CDB7DEB7DC
:1005F0000E94DA1461E089E00E946D1561E081E1FA
:100600000E946D1562E083E10E946D1562E084E155
:100610000E946D1560E089E00E94A91561E081E10A
:100620000E94A9150E94DF34789483E10E94D815B6
:100630008C0184E10E94D815000F111F802B80933C
:10064000F4058CE5E8E9F5E0DF011D928A95E9F70C
:1006500060E089E00E94A91564E170E080E090E02C
:100660000E94931461E089E00E94A91564E170E0A2
:1006700080E090E00E9493148BEE94E00E947D0253
:100680008F3F79F481E10E94D81561E0892B09F050
:1006900060E081E10E94A91564EF71E080E090E0E4
:1006A000E9CF84E097E00E94821340E85AE166E0D7
:1006B00070E084E097E00E948C1311E0612F84E0E9
:1006C00097E00E94901341E050E06AE471E084E01A
:1006D00097E00E940A1361E084E097E00E949A1379
:1006E00064E670E080E090E00E9493141F5F143095
:1006F00029F7E1ECF3E0A3EDB3E021ED33E08FEF78
:1007000091E082838383848385839D9334962E171F
:100710003F07B9F780E290E00E9413378B3A49F027
:100720006BEA80E290E00E941B378EE091E00E942D
:10073000390144244A94542C612C712C8BEE94E0A2
:100740000E944D0284E4282E82E0382EE4E6F2E096
:10075000FE83ED8394E5C92E92E0D92E28E7A22EE0
:1007600022E0B22E3CE7832E32E0932E48E9E42EBD
:1007700045E0F42E10E08BEE94E00E94421E812FA3
:100780000E941F02882309F4B4C68091970588232C
:1007900019F0112309F44BC1D70112961C92612F55
:1007A00080E00E94A201882321F0F701828181600C
:1007B0008283612F82E00E94A201882339F0D70151
:1007C00012968C911297826012968C93612F83E01F
:1007D0000E94A201882321F0F70182818460828334
:1007E000612F81E00E94A201882339F0D70112967F
:1007F0008C911297886012968C93612F85E00E94ED
:10080000A201882321F0F701828180618283612F18
:1008100084E00E94A201882339F0D70112968C91BE
:100820001297806212968C93612F86E00E94A2013B
:10083000882321F0F701828180648283612F87E021
:100840000E94A201882339F0D70112968C91129749
:10085000806812968C93612F8DE00E94A2018823FC
:1008600021F08FEFF701848303C0D70114961C9207
:10087000612F8CE00E94A201882321F08FEFF70105
:10088000858303C0D70115961C92612F8EE00E94CC
:10089000A201882321F08FEFF701868303C0D701DF
:1008A00016961C92612F8FE00E94A201882321F0EE
:1008B0008FEFF701878303C0D70117961C92612F32
:1008C0008AE00E94A201882321F08FEFF70181873F
:1008D00003C0D70119961C92612F8BE00E94A201E0
:1008E000882321F08FEFF701808703C0D701189686
:1008F0001C92612F88E00E94A201F7018287612F7C
:1009000089E00E94A201D7011B968C93612F84E09D
:100910000E94A201882381F0412F66E081EC93E0E0
:100920000E944125882341F0D4018C918F5F84304F
:1009300009F020C6F4011082612F84E00E94A20118
:10094000882381F0412F67E081EC93E00E944125EC
:10095000882341F0F50180818F5F843009F00CC657
:10096000D5011C92F4018081612F823041F08330E7
:1009700061F08130D9F480E00E94C1010BC080E0B9
:100980000E94C1018095909514C080E00E94C10131
:1009900080959095D7011D969C938E931C97612FFF
:1009A00081E00E94C101809590950CC080E00E947A
:1009B000C101D7011D969C938E931C97612F81E0F6
:1009C0000E94C101F70197878687D5018C91612F1D
:1009D000823041F0833061F08130F1F482E00E9496
:1009E000C1010BC082E00E94C1018095909517C0A3
:1009F00082E00E94C10180959095F701918B808BD8
:100A0000612F83E00E94C10180959095D701539694
:100A10009C938E935297D8C382E00E94C101F70144
:100A2000918B808B612F83E00E94C101EFCF8130D9
:100A300009F0CAC38091D803882309F4C5C3109272
:100A40007B0510927A0510927D0510927C058091AD
:100A50007E0590917F058C7F90937F0580937E0526
:100A600040E065E081EC93E00E940025882349F096
:100A700080917A0590917B05806490937B058093AB
:100A80007A0540E06AE081EC93E00E94002588232B
:100A900049F080917A0590917B05826090937B0567
:100AA00080937A0540E066E081EC93E00E940025A7
:100AB000882309F463C080917E0590917F05826050
:100AC00090937F0580937E058091740290917502CA
:100AD000A0917602B0917702892B8A2B8B2B29F576
:100AE00080910A0190910B01A0910C01B0910D0130
:100AF00081159048A105B10569F480910601909196
:100B00000701A0910801B091090181159048A10544
:100B1000B10559F00E9462146093740270937502DB
:100B2000809376029093770231C00E9462142091E4
:100B30007402309175024091760250917702DC0187
:100B4000CB01821B930BA40BB50B853F9140A105F4
:100B5000B105E0F080E090E8A0E0B0E0809306010D
:100B600090930701A0930801B093090180930A01B3
:100B700090930B01A0930C01B0930D01109274029D
:100B800010927502109276021092770240E067E0B0
:100B900081EC93E00E9400258111F0C440E06CE0FC
:100BA00081EC93E00E9400258111E8C440E06BE0F5
:100BB00081EC93E00E9400258111EAC440E06DE0E1
:100BC00081EC93E00E9400258111E2C440E060E1E5
:100BD00081EC93E00E9400258111E4C440E065E6C9
:100BE00081EC93E00E947C258111DCC480916B052F
:100BF000982F907F29F09093AD0591E09093AE05EA
:100C0000982F9F70E1F0A0E18A9FC001112480938A
:100C1000AC058093AD0581E08093AE0540E06EE0C9
:100C200081EC93E00E940025882349F080917C05A7
:100C300090917D05826090937D0580937C058091E5
:100C40007005982F9F70E1F0B0E18B9FC0011124D7
:100C50008093AC058093AD0581E08093AE0540E0C4
:100C60006EE081EC93E00E940025882349F080919A
:100C70007C0590917D05986090937D0580937C051F
:100C800080916A05807F89F040E06EE081EC93E01E
:100C90000E940025882349F080917C0590917D0574
:100CA000816090937D0580937C0580916405982FE9
:100CB0009F7059F0E0E18E9FC00111248093AC0534
:100CC0008093AD0581E08093AE0540E068E081EC63
:100CD00093E00E947C25811109C040E064E081EC32
:100CE00093E00E940025882309F475C540E067E180
:100CF00081EC93E00E947C25882349F080917C055B
:100D000090917D05906190937D0580937C0540E0F6
:100D100066E181EC93E00E947C25882349F0809174
:100D20007C0590917D05906290937D0580937C0574
:100D300040E065E181EC93E00E947C25882349F046
:100D400080917C0590917D05906490937D058093C2
:100D50007C0540E064E181EC93E00E947C258823DF
:100D600049F080917C0590917D05906890937D0578
:100D700080937C0540E063E181EC93E00E947C2558
:100D8000882349F080917E0590917F058160909342
:100D90007F0580937E0540E060E081EC93E00E9457
:100DA00041258111D5C540E061E081EC93E00E94CE
:100DB00041258111CDC540E062E081EC93E00E94C5
:100DC00041258111CBC540E063E081EC93E00E94B6
:100DD00041258111C3C58091900580311CF08FE0C1
:100DE000809390058091900587FD1092900540E0DA
:100DF00067E281EC93E00E949425882351F0809172
:100E00007E0590917F05F8E08F2790937F05809372
:100E10007E0540E067E381EC93E00E9494258823FF
:100E200051F080917E0590917F0524E08227909378
:100E30007F0580937E0540E066E281EC93E00E94AE
:100E40009425882351F080917E0590917F0530E4B0
:100E5000832790937F0580937E0540E066E381ECD5
:100E600093E00E949425882351F080917E05909113
:100E70007F05A0E28A2790937F0580937E0540E05E
:100E800066E481EC93E00E949425882351F08091E0
:100E90007E0590917F05B0E18B2790937F0580932D
:100EA0007E0540E065E381EC93E00E947C25882389
:100EB00049F080917C0590917D05816090937D053E
:100EC00080937C0540E064E381EC93E00E947C2504
:100ED000882349F080917C0590917D0582609093F4
:100EE0007D0580937C0540E061E081EC93E00E9409
:100EF0009425811161C340E063E381EC93E00E949B
:100F00007C25811166C540E06FE081EC93E00E9492
:100F1000002581115EC540E065E481EC93E00E940C
:100F20007C25811160C540E061E581EC93E00E9481
:100F30007C25811158C540E064E481EC93E00E9477
:100F40007C2581115AC540E065E581EC93E00E9463
:100F50007C25811152C540E063E481EC93E00E945E
:100F60007C25811154C540E064E581EC93E00E944A
:100F70007C2581114CC540E061E281EC93E00E9448
:100F80007C25882349F080917A0590917B058068C3
:100F900090937B0580937A0540E061E381EC93E0D8
:100FA0000E947C25882349F080917A0590917B05E9
:100FB000926090937B0580937A0540E061E481EC38
:100FC00093E00E947C25882349F080917A059091D6
:100FD0007B05986090937B0580937A0540E066E7F7
:100FE00081EC93E00E947C25882349F080917A056A
:100FF00090917B05916090937B0580937A0540E00A
:1010000067E781EC93E00E947C25882349F080917A
:101010007A0590917B05946090937B0580937A0587
:1010200040E062E581EC93E00E947C25882349F052
:1010300080917A0590917B05906190937B058093D8
:101040007A0540E063E681EC93E00E947C258823EA
:1010500049F080917A0590917B05806490937B059F
:1010600080937A0540E064E681EC93E00E947C2561
:10107000882351F080917A0590917B058F7D806166
:1010800090937B0580937A0540E062E681EC93E0E3
:101090000E947C25882351F080917A0590917B05F0
:1010A0008F7E806290937B0580937A050091E900A2
:1010B0000F709091EC00892F817090FD80E8082BD3
:1010C00081E08093E9008091E80082FF0DC040E05C
:1010D00050E066E170E082E695E00E942430809165
:1010E000E8008B778093E8000F700093E90040E000
:1010F00068E081EC93E00E94002510928A058093BD
:101100008B0540E069E081EC93E00E94002510929D
:101110008E0580938F0540E061E781EC93E00E94AB
:101120007C25882309F45BC280E09FEF90938D05B6
:1011300080938C0540E068E081EC93E00E947C2580
:10114000882309F451C281E091E00E945D0140E0F2
:1011500064E081EC93E00E947C2581114FC240E065
:1011600060E081EC93E00E94D52590938705809301
:10117000860540E061E081EC93E00E94D5258095F2
:101180009095909389058093880540E068E081EC14
:1011900093E00E947C25882309F413C340E060E0BB
:1011A00081EC93E00E94D525909387058093860576
:1011B00040E061E081EC93E00E94D5258095909518
:1011C000909389058093880540E062E081EC93E08C
:1011D0000E947C258823A1F140E064E081EC93E04B
:1011E0000E949425882361F18091E00081608093C2
:1011F000E0000E94621460939205709393058093BF
:1012000094059093950580919705813009F4EBC47E
:10121000412F61E081EC93E00E941E29412F6AE09A
:1012200081EC93E00E941E29412F61E081EC93E064
:101230000E941E29412F6AE081EC93E00E941E2942
:101240008091920590919305A0919405B091950598
:10125000892B8A2B8B2B09F44FC00E94621420919A
:101260009205309193054091940550919505DC01CC
:10127000CB01821B930BA40BB50B853F9140A105BD
:10128000B105D0F180919705813009F4C1C481E0A6
:10129000809397051092AC051092AD058093AE0532
:1012A00010927B0510927A0510927D0510927C05B4
:1012B00010927F0510927E05412F61E081EC93E052
:1012C0000E941E29412F6AE081EC93E00E941E29B2
:1012D000412F61E081EC93E00E941E29412F6AE0DA
:1012E00081EC93E00E941E291092920510929305C2
:1012F00010929405109295050E946214AD81BE81F2
:101300002D913D914D915C91DC01CB01821B930BA2
:10131000A40BB50B4197A105B10508F481C0612F5D
:1013200080E10E94A2018823C1F1F60180819181B0
:10133000A281B381892B8A2B8B2B41F40E946214EA
:10134000D6016D937D938D939C9313970E946214A5
:10135000F6012081318142815381DC01CB01821B66
:10136000930BA40BB50B893E9340A105B10508F47E
:101370004EC00E946214D6012D913D914D915C9119
:10138000DC01CB01821B930BA40BB50B8C34944076
:10139000A105B10508F45BC43AC0612F85E00E9445
:1013A000A2018823F9F0612F84E00E94A201882322
:1013B000C9F0612F88E00E94A201882399F0612F73
:1013C00089E00E94A201882369F0E8E9F5E081E064
:1013D000148A158A868B779624EF35E02E173F07FF
:1013E000B9F715C0D6011D921D921D921C9213973C
:1013F000F7018689813059F4412FD70155966C91B8
:10140000559754968C910E94F301F701168A0E9419
:101410006214AD81BE816D937D938D939C931397E0
:10142000112309F463C0612F84E097E00E949013B8
:1014300044E150E0B70184E097E00E940A1361E0C4
:1014400084E097E00E949A130E946214F1012081C7
:10145000318142815381DC01CB01821B930BA40BB0
:10146000B50B0997A105B10508F440C042E0612F12
:1014700084E097E00E941114823061F584E097E0E7
:101480000E94E7128F3FFFEF9F0781F0D70154962C
:101490002C91549730E0AC0155272417350731F0D3
:1014A00054968C93549781E056968C9384E097E001
:1014B0000E94E7128F3FBFEF9B0781F0F70125895C
:1014C00030E0AC0155272417350741F0858B81E0CA
:1014D000868B04C084E097E00E9466130E94621429
:1014E000D1016D937D938D939C9313970E94790105
:1014F00014C0112391F0612F84E097E00E949013B3
:1015000041E050E060E071E084E097E00E940A135F
:1015100061E084E097E00E949A131F5FB4E02B0E15
:10152000311CE7E1EE0EF11C2D813E812C5F3F4F17
:101530003E832D8334E0C30ED11C8FEFA81AB80A66
:101540009FEF891A990A143009F015C980E00E94AA
:101550001F02882309F494C380919205909193050A
:10156000A0919405B0919505892B8A2B8B2B09F4BA
:10157000D6C386C38C93E0C98083F4C980917A0571
:1015800090917B05846090937B0580937A050ECBC8
:1015900080917A0590917B05816090937B05809383
:1015A0007A0514CB80917A0590917B0588609093A1
:1015B0007B0580937A051ACB80917E0590917F05FB
:1015C0008C7F892B29F010927F0510927E0593CC99
:1015D0008CEF9FEF90937F0580937E058CCC1092CB
:1015E0008D0510928C05A6CD40E064E081EC93E07F
:1015F0000E940025882309F414C2A5CD40E066E6C8
:1016000081EC93E00E947C25882361F088EC90E0D7
:10161000A0E0B0E08093010190930201A093030148
:10162000B093040140E067E681EC93E00E947C25E2
:10163000882361F08AEF90E0A0E0B0E080930101A0
:1016400090930201A0930301B093040140E061E193
:1016500081EC93E00E947C25882361F08CE291E08C
:10166000A0E0B0E08093010190930201A0930301F8
:10167000B093040140E062E181EC93E00E947C259C
:10168000882361F08EE591E0A0E0B0E08093010155
:1016900090930201A0930301B093040140E063E141
:1016A00081EC93E00E947C25882361F080E991E041
:1016B000A0E0B0E08093010190930201A0930301A8
:1016C000B093040140E064E181EC93E00E947C254A
:1016D000882361F08AE892E0A0E0B0E08093010105
:1016E00090930201A0930301B093040140E065E1EF
:1016F00081EC93E00E947C25882361F080E293E0F6
:10170000A0E0B0E08093010190930201A093030157
:10171000B093040140E066E181EC93E00E947C25F7
:10172000882361F088EE93E0A0E0B0E080930101AF
:1017300090930201A0930301B093040140E067E19C
:1017400081EC93E00E947C25882361F080EB94E09B
:10175000A0E0B0E08093010190930201A093030107
:10176000B093040119821A821B821C82CE01019659
:101770000E945D0149815A816B817C8180910101C8
:1017800090910201A0910301B091040148175907FB
:101790006A077B0709F4E3CC81E091E00E943901FC
:1017A00081E10E94D81561E0892B09F060E081E1B8
:1017B0000E94A91564E670E080E090E00E94931416
:1017C000CECC40E064E081EC93E00E9400258823C9
:1017D00009F446C1E3CC40E064E081EC93E00E9470
:1017E0007C25811104CB40E067E181EC93E00E940D
:1017F0007C25882349F080917C0590917D0580644B
:1018000090937D0580937C0540E066E181EC93E058
:101810000E947C25882349F080917C0590917D056C
:10182000886090937D0580937C0540E065E181ECC4
:1018300093E00E947C25882349F080917A0590915D
:101840007B05906290937B0580937A0540E064E18C
:1018500081EC93E00E947C25882349F080917C05EF
:1018600090917D05806890937D0580937C0540E094
:1018700063E181EC93E00E947C25882349F080910C
:101880007C0590917D05806190937D0580937C051A
:1018900040E062E181EC93E00E947C25882349F0DE
:1018A00080917A0590917B05906490937B0580935D
:1018B0007A0540E061E181EC93E00E947C25882379
:1018C00049F080917C0590917D05916090937D0514
:1018D00080937C0540E067E681EC93E00E947C25E4
:1018E000882349F080917C0590917D0580629093DA
:1018F0007D0580937C0540E066E681EC93E00E94E4
:101900007C25882349F080917A0590917B05906829
:1019100090937B0580937A0540E060E081EC93E052
:101920000E944125882301F140E063E081EC93E0CF
:101930000E940025811118C040E061E081EC93E035
:101940000E940025811110C0809105018F5F3EC06B
:10195000809190058E5F809390052DCA80919005AF
:1019600082508093900537CA40E062E081EC93E0BA
:101970000E944125882381F040E063E081EC93E000
:101980000E940025811108C040E061E081EC93E0F5
:101990000E9400258823B9F08091050187301CF052
:1019A00086E0809305018091050187FD1092050175
:1019B000E09105010E2E000CFF0BED5BFE4F8081C8
:1019C0008093910514CA809105018150809305018F
:1019D000E3CF80917C0590917D05846090937D0597
:1019E00080937C0598CA80917C0590917D059260DA
:1019F00090937D0580937C059ECA80917C05909193
:101A00007D05946090937D0580937C05A4CA8091A8
:101A10007C0590917D05986090937D0580937C0571
:101A2000AACA40E063E081EC93E00E94002588238D
:101A300019F081E090E80AC040E061E081EC93E0B9
:101A40000E940025882339F08FEF9FE7909385054A
:101A50008093840578CB109285051092840573CB12
:101A600040E062E081EC93E00E94D525BC01990F33
:101A7000880B990B9B01AC01245B324E4F4F5F4F9B
:101A800029393A4341055105F0F020910101309187
:101A9000020140910301509104010E94CA368091D5
:101AA000060190910701A0910801B0910901820FF0
:101AB000931FA41FB51F8093060190930701A09365
:101AC0000801B093090140E063E081EC93E00E94DB
:101AD000D525BC01990F880B990B9B01AC01245BA8
:101AE000324E4F4F5F4F29393A4341055105F0F0CF
:101AF00020910101309102014091030150910401B4
:101B00000E94CA3680910A0190910B01A0910C01AC
:101B1000B0910D01821B930BA40BB50B80930A01AE
:101B200090930B01A0930C01B0930D0180910601DD
:101B300090910701A0910801B0910901B7FF08C079
:101B400010920601109207011092080110920901EB
:101B50008091060190910701A0910801B0910901BF
:101B60000097A140B10544F0409206015092070150
:101B7000609208017092090180910A0190910B0115
:101B8000A0910C01B0910D010097A140B10544F066
:101B900040920A0150920B0160920C0170920D016B
:101BA00080910A0190910B01A0910C01B0910D015F
:101BB000B7FF08C010920A0110920B0110920C019D
:101BC00010920D018091060190910701909381057B
:101BD0008093800580910A0190910B019093830579
:101BE00080938205DBCA412F69E081EC93E00E947B
:101BF0001E29412F62E081EC93E00E941E29412FB3
:101C000069E081EC93E00E941E29412F62E014CB31
:101C1000109297051092AC051092AD058093AE0519
:101C200010929A05412F69E081EC93E00E941E29F1
:101C3000412F62E081EC93E00E941E29412F69E070
:101C400081EC93E00E941E29412F62E049CBD7012D
:101C500012961C92412F60E080E00E94F3016AE03E
:101C600070E080E090E00E949314612F81EC93E09B
:101C70000E943B26F6011082118212821382C7CB8A
:101C80000E94621469357B418105910568F061E02D
:101C900081E10E94A9158091E00081608093E000BD
:101CA00081E08093D30307C08091E0008E7F809312
:101CB000E0000E9479011091E9001F709091EC0002
:101CC000892F817090FD80E8182B82E08093E900D5
:101CD0008091E80082FF1EC040E050E066E070E0C6
:101CE0008EE392E00E9424308091E8008B7780930D
:101CF000E80080913F02863059F480914102809340
:101D0000AC05809143028093AD0581E08093AE05E0
:101D100010923F021F701093E9000C949E03809173
:101D2000E0008E7F8093E00080919605882319F271
:101D300060E081E10E94A915BECFFC01918D228D4A
:101D4000892F90E0805C9F4F821B91098F739927A8
:101D50000895FC01918D828D981731F0828DE80FE6
:101D6000F11D858D90E008958FEF9FEF0895FC01A0
:101D7000918D828D981761F0828DDF01A80FB11DC2
:101D80005D968C91928D9F5F9F73928F90E00895E6
:101D90008FEF9FEF0895FC01538D448D252F30E088
:101DA000842F90E0821B930B541710F0CF96089568
:101DB00001970895FC01848DDF01A80FB11DA35A7E
:101DC000BF4F2C91848D90E001968F739927848F5B
:101DD000A689B7892C93A089B1898C9180648C9352
:101DE000938D848D981306C00288F389E02D80813D
:101DF0008F7D80830895EF92FF920F931F93CF936F
:101E0000DF93EC0181E0888F9B8D8C8D981305C04A
:101E1000E889F989808185FD24C0F62E0B8D10E0BC
:101E20000F5F1F4F0F731127E02E8C8DE8120CC02F
:101E30000FB607FCFACFE889F989808185FFF5CFD5
:101E4000CE010E94DA0EF1CF8B8DFE01E80FF11D5D
:101E5000E35AFF4FF0820B8FEA89FB898081806211
:101E600007C0EE89FF896083E889F98980818064F1
:101E7000808381E090E0DF91CF911F910F91FF90DF
:101E8000EF900895CF93DF93EC01888D8823C9F0FC
:101E9000EA89FB89808185FD05C0A889B9898C9173
:101EA00086FD0FC00FB607FCF5CF808185FFF2CF0E
:101EB000A889B9898C9185FFEDCFCE010E94DA0EF9
:101EC000E7CFDF91CF91089580E090E008951F92D1
:101ED0000F920FB60F9211242F938F939F93EF932E
:101EE000FF93E0910506F09106068081E0910B06D4
:101EF000F0910C0682FD12C0908180910E068F5FDA
:101F00008F7320910F06821751F0E0910E06F0E0DA
:101F1000EB50FA4F958F80930E0601C08081FF91A0
:101F2000EF919F918F912F910F900FBE0F901F9067
:101F300018951F920F920FB60F9211242F933F9373
:101F40004F935F936F937F938F939F93AF93BF93C1
:101F5000EF93FF9385EF95E00E94DA0EFF91EF91EA
:101F6000BF91AF919F918F917F916F915F914F91B1
:101F70003F912F910F900FBE0F901F901895E5EF96
:101F8000F5E01382128288EE93E0A0E0B0E0848353
:101F90009583A683B7838FE491E0918380838DEC52
:101FA00090E0958784878CEC90E09787868788EC13
:101FB00090E0918B808B89EC90E0938B828B8AEC04
:101FC00090E0958B848B8EEC90E0978B868B118EB6
:101FD000128E138E148E08950895CF92DF92EF9291
:101FE000FF920F931F93CF93DF936C017A018B01C4
:101FF000C0E0D0E0CE15DF0581F0D8016D918D01F4
:10200000D601ED91FC910190F081E02DC60109957A
:10201000892B11F02196EECF7E01C701DF91CF9180
:102020001F910F91FF90EF90DF90CF900895CF9385
:10203000DF93CCEBD0E018821092030781E080930D
:1020400001071092000761E082E00E94A91561E09B
:1020500083E00E94A915E9EBF0E080818E7F808308
:1020600080818D7F808388E48093B80085E48883B5
:10207000DF91CF910895813049F410929206109229
:102080009306109294061092950617C080919206BE
:1020900090919306A0919406B09195060196A11D8A
:1020A000B11D8093920690939306A0939406B093EB
:1020B000950684E690E00E94CF148091920690915C
:1020C0009306A0919406B091950680359105A105DF
:1020D000B10580F010929206109293061092940629
:1020E000109295060E94171061E081E10E94A915E7
:1020F00081E0089580E008959B01AC0160E074E206
:1021000084EF90E00E94A836DA01C9014097A10946
:10211000B109B695A795979587958093B8000895CE
:10212000FF920F931F93CF93DF93D82F162F072F74
:10213000C42FF22E413208F054C081E00E943B10BF
:1021400080910307882329F080E00E943B108823B8
:10215000B9F381E080930307F09201079FEF90931A
:1021600096061092DB069C0F9093DA068093020786
:1021700080910207DD0FD82BD093020780910007D2
:10218000813061F410920007809102078093BB00B8
:102190008091BC0083FDF8CF85EC01C085EE809373
:1021A000BC0081E00E943B1080910307813029F43C
:1021B00080E00E943B108823B9F38091DB068C17E6
:1021C00010F4C091DB06ACEDB6E0912FE12FF02FBB
:1021D0008E2F891B8C1718F48D918193F9CF8C2F3A
:1021E00001C080E0DF91CF911F910F91FF90089582
:1021F000DF92EF92FF920F931F93CF93DF934132C1
:1022000008F062C0D22E142FE72EF62ED82F81E0D0
:102210000E943B10C0910307CC2331F080E00E9464
:102220003B1081114FC0F6CF82E0809303070093EB
:1022300001078FEF809396061092DB061093DA0663
:102240009F2DACEDB6E0EF2DFE2D8E2F891B811753
:1022500018F481918D93F9CF1092020780910207B3
:10226000DD0FD82BD093020780910007813061F4F5
:1022700010920007809102078093BB008091BC0000
:1022800083FDF8CF85EC01C085EE8093BC0081E032
:102290000E943B10DD2051F080910307823031F421
:1022A00080E00E943B1081110DC0F4CF8091960612
:1022B0008F3F79F080919606803241F080919606AA
:1022C000803331F0C4E005C0C1E003C0C2E001C00A
:1022D000C3E08C2FDF91CF911F910F91FF90EF9072
:1022E000DF9008954091B806262F30E0240F311D6D
:1022F00021323105DCF4209103072430C9F4FC01BC
:1023000080E090E0861758F43091B8062191DC0106
:10231000A654B94FA30FB11D2C930196F3CF809112
:10232000B806680F6093B80680E0089581E00895CC
:1023300082E0089585ED8093BC0081E00E943B100F
:102340008091BC0084FF05C080E00E943B10882380
:10235000B9F310920307089585EC8093BC001092A6
:10236000030708951F920F920FB60F9211242F9317
:102370003F934F935F936F937F938F939F93AF930D
:10238000BF93EF93FF938091B900887F803609F463
:102390009EC078F5883209F45DC090F4803109F46C
:1023A00056C038F4882309F4F5C0883009F44FC0CA
:1023B000F5C0883109F44EC0803209F45FC0EEC028
:1023C000803409F46AC058F4803309F457C0883364
:1023D00009F0E4C0809396060E94AC11DFC08035FE
:1023E00009F44FC0883509F45DC0883409F0D6C0BF
:1023F000D3C0883909F4C4C0A8F4883709F467C089
:1024000038F4883609F463C0803709F460C0C6C068
:10241000883809F4B5C0803909F45FC0803809F004
:10242000BDC05BC0803B09F483C038F4803A09F436
:1024300066C0883A09F47CC0B1C0803C09F4A4C0ED
:10244000883C09F4A1C0883B09F487C0A7C08091EB
:10245000020710C09091DB068091DA06981770F59C
:10246000E091DB0681E08E0F8093DB06F0E0E45222
:10247000F94F80818093BB0085EC83C080939606E2
:102480008BC0E091DB0681E08E0F8093DB068091AC
:10249000BB00F0E0E452F94F80839091DB0680911D
:1024A000DA066BC0E091DB0681E08E0F8093DB06DD
:1024B0008091BB00F0E0E452F94F808380910107E6
:1024C00081116AC081E08093000784EA5EC083E0E6
:1024D0008093030710929706CFCF809197068032A2
:1024E00008F04EC0E091970681E08E0F809397062A
:1024F0008091BB00F0E0E856F94F8083BDCF0E9489
:10250000AC1180919706803230F4E0919706F0E0AC
:10251000E856F94F10826091970670E0E091FC0652
:10252000F091FD0688E996E009951092970636C06D
:1025300084E0809303071092B9061092B806E091E8
:10254000FE06F091FF0609958091B806811105C03D
:1025500081E08093B8061092BA06E091B90681E056
:102560008E0F8093B906F0E0E654F94F8081809396
:10257000BB009091B9068091B806981708F47CCFFB
:1025800085E88093BC000AC085EC8093BC00109263
:10259000030704C0109296060E949A11FF91EF91D2
:1025A000BF91AF919F918F917F916F915F914F916B
:1025B0003F912F910F900FBE0F901F901895809113
:1025C000340790E020913507821B9109089590917E
:1025D000350780913407981750F4E92FF0E0EA5C52
:1025E000F84F208130E09F5F9093350702C02FEFB6
:1025F0003FEFC9010895E091350780913407E8174E
:1026000030F4F0E0EA5CF84F808190E008958FEFBD
:102610009FEF0895CF92DF92EF92FF920F931F9357
:10262000CF93DF937C01CB018A01209110072223F5
:1026300089F0EB016B01C40ED51ECC15DD0569F0E8
:102640006991D701ED91FC910190F081E02DC701D6
:102650000995F3CF642F0E947211C801DF91CF91C9
:102660001F910F91FF90EF90DF90CF900895CF933F
:10267000DF931F92CDB7DEB7698320911007222325
:10268000D1F020911107203240F021E030E0FC0130
:102690003383228380E090E015C080911207E82FF9
:1026A000F0E0ED5EF84F998190838F5F8093120781
:1026B0008093110705C061E0CE0101960E9472115E
:1026C00081E090E00F90DF91CF910895109235074F
:1026D0001092340780E2E6E3F7E0DF011D928A956D
:1026E000E9F70895FC011382128288EE93E0A0E0DE
:1026F000B0E084839583A683B78381E691E09183DC
:1027000080830895109235071092340710921207B3
:10271000109211070C941710CB01BA010C947C1085
:1027200081E0809310076093330710921207109294
:10273000110708950F93062F21E04091110763E1DF
:1027400077E0809133070E94F810109212071092E0
:102750001107109210070F9108954F925F926F9298
:102760007F92AF92BF92CF92EF92FF920F931F93FF
:10277000CF93DF935C01F62ED42F28013901EE2090
:1027800021F10E949013CE2DC43008F0C3E0C15057
:10279000C0F028E0C29FC0011124A301920104C02F
:1027A00056954795379527958A95D2F7CA01B9016D
:1027B000D501ED91FC910190F081E02DC5010995C5
:1027C000E6CF60E0C5010E949A134D2FD13208F088
:1027D00040E22C2D66E377E08F2D0E94901010923E
:1027E000350780933407DF91CF911F910F91FF90B0
:1027F000EF90CF90BF90AF907F906F905F904F9091
:102800000895CF92EF920F931F93C22EE12C00E018
:1028100010E098010E94AD131F910F91EF90CF909F
:10282000089521E00C94011484E097E00C94721355
:102830001F920F920FB60F9211242F933F938F93F5
:102840009F93AF93BF938091570790915807A091A2
:102850005907B0915A073091560723E0230F2D37BF
:1028600020F40196A11DB11D05C026E8230F029694
:10287000A11DB11D209356078093570790935807C9
:10288000A0935907B0935A0780915B0790915C071A
:10289000A0915D07B0915E070196A11DB11D8093C7
:1028A0005B0790935C07A0935D07B0935E07BF91B1
:1028B000AF919F918F913F912F910F900FBE0F90ED
:1028C0001F9018952FB7F89460915707709158078B
:1028D0008091590790915A072FBF08953FB7F894F8
:1028E00080915B0790915C07A0915D07B0915E07B6
:1028F00026B5A89B05C02F3F19F00196A11DB11D5B
:102900003FBFBA2FA92F982F8827820F911DA11D95
:10291000B11DBC01CD0142E0660F771F881F991FD2
:102920004A95D1F708958F929F92AF92BF92CF921E
:10293000DF92EF92FF926B017C010E946E144B01BB
:102940005C01C114D104E104F10401F10E94EC0F17
:102950000E946E14DC01CB0188199909AA09BB09F0
:10296000883E9340A105B10560F321E0C21AD10869
:10297000E108F10888EE880E83E0981EA11CB11CC6
:10298000C114D104E104F10419F7DBCFFF90EF90FB
:10299000DF90CF90BF90AF909F908F90089582303E
:1029A000910538F0880F991F880F991F0597019797
:1029B000F1F70895789484B5826084BD84B5816010
:1029C00084BD85B5826085BD85B5816085BDEEE637
:1029D000F0E0808181608083E1E8F0E01082808116
:1029E00082608083808181608083E0E8F0E0808184
:1029F00081608083E1E9F0E0808182608083808172
:102A000081608083E0E9F0E0808181608083E1EC97
:102A1000F0E0808184608083808182608083808117
:102A200081608083E3ECF0E0808181608083E0EC72
:102A3000F0E0808182608083E2ECF0E08081816060
:102A40008083EAE7F0E08081846080838081826017
:102A50008083808181608083808180688083089505
:102A600090E0FC013197EF30F105B0F5EA5AFF4FE5
:102A70000C94E936809180008F7703C080918000AC
:102A80008F7D80938000089580918000877FF9CFAB
:102A900084B58F7702C084B58F7D84BD0895809101
:102AA00090008F7707C0809190008F7D03C0809148
:102AB0009000877F8093900008958091C0008F7769
:102AC00003C08091C0008F7D8093C00008958091E5
:102AD000C200877F8093C2000895CF93DF9390E078
:102AE000FC01E350FF4F2491FC01E45EFE4F849112
:102AF000882361F190E0880F991FFC01E95AFE4F8D
:102B0000C591D491FC01E75BFE4FA591B491611191
:102B100009C09FB7F8948881209582238883EC911F
:102B20002E230BC0623061F49FB7F8948881322F56
:102B3000309583238883EC912E2B2C939FBF06C066
:102B40008FB7F894E8812E2B28838FBFDF91CF9128
:102B500008951F93CF93DF93282F30E0F901E252BD
:102B6000FF4F8491F901E350FF4FD491F901E45EE6
:102B7000FE4FC491CC23C1F0162F81110E94301555
:102B8000EC2FF0E0EE0FFF1FE75BFE4FA591B49135
:102B90009FB7F894111104C08C91D095D82302C02E
:102BA000EC91DE2BDC939FBFDF91CF911F910895B5
:102BB000CF93DF93282F30E0F901E252FF4F849149
:102BC000F901E350FF4FD491F901E45EFE4FC49147
:102BD000CC2391F081110E943015EC2FF0E0EE0F24
:102BE000FF1FE55CFE4FA591B491EC91ED2381E0D0
:102BF00090E021F480E002C080E090E0DF91CF918E
:102C00000895CF93DF93FC01862F8078A9F42830B4
:102C100008F04DC0442321F09581973009F447C056
:102C2000EF01A1E0B0E09D85992341F01196259632
:102C3000A031B105C1F73BC080E039C061111CC0B3
:102C400085E08A9FE0018B9FD00D1124CE0FDF1FFE
:102C5000442331F081E4888785818F5F858302C0BA
:102C600081E0888725E02A9FC0012B9F900D1124C9
:102C7000E80FF91F80851BC06770660F660F660F2F
:102C8000442341F0606485818F5F85838770687F0E
:102C9000682B03C02770687B622B25E02A9FC00148
:102CA0002B9F900D1124E80FF91F6087862FDF916D
:102CB000CF910895611102C006960895FC0121E0AC
:102CC0003585631739F02F5F35962031C9F780E0DD
:102CD00090E00895069635E0239F800D911D112404
:102CE0000895DF92EF92FF920F931F93CF93DF939C
:102CF000EC01E62EF12C85E0689FB0011124FE0165
:102D0000E60FF71F8085182F177086FF17C001E0A8
:102D100085E0D82EFE01D09EE00DF11D11248085A6
:102D200086958695869587701817F9F00F5F0031A4
:102D300089F78D81811302C011501D8385E08E9D1E
:102D4000F0018F9DF00D1124EC0FFD1F108681E026
:102D5000818712862296D783C683DF91CF911F91F8
:102D60000F91FF90EF90DF900895602FCE010E94A9
:102D70007116D0CFFC01613499F49C01255B3F4F63
:102D800061E0AC014E5F5F4F1586668717865487FA
:102D900043873596E217F307B9F7FC0115820895CA
:102DA00021E03585631729F02F5F35962031C9F76B
:102DB0000895622F0C947116FC0183E791E09183D2
:102DC00080831582108681E081871286CF0102966A
:102DD00097838683128228E023832CE32483DF01F8
:102DE0009F01255B3F4F41E01D961C921D971E964B
:102DF0004C931E971F961C921F971C969C938E9324
:102E00001B971596A217B30779F7EA58FF4F108260
:102E100081E1809363070895CF93C42F0E945A16CF
:102E2000009789F0DC01ED91FC911197309759F0F2
:102E300013969C9180E0891731F020812C1731F096
:102E400033968F5FF8CF80E090E001C0CF01CF9143
:102E500008950F931F93CF93DF932115310571F0E0
:102E6000E901042F162F0E945A16FC01892B41F00C
:102E70001283D183C083038380E003C088ED01C047
:102E800086EDDF91CF911F910F910895CF92DF9240
:102E9000FF920F931F93CF93DF93662381F1F62E5A
:102EA0008C016C0186E5C80ED11CC0E0D0E0D601D3
:102EB0008D919D916D010097F1F0DC01ED91FC91F8
:102EC0000084F185E02D0995F81215C0AB96CC0F62
:102ED000DD1FC00FD11F88819981DC01ED91FC912C
:102EE0000480F581E02DDF91CF911F910F91FF902C
:102EF000DF90CF9009942196C031D105C1F680E0D2
:102F0000DF91CF911F910F91FF90DF90CF900895A7
:102F10002E980895CF93C82F0E948817CEBD0DB468
:102F200007FEFDCF1EBC0DB407FEFDCF0E9432028E
:102F30008EB5CF910895CF93DF93C82FD62F0E94DF
:102F40008817C260CEBD0DB407FEFDCFDEBD0DB447
:102F500007FEFDCFDF91CF910C9432028F929F92AA
:102F6000AF92BF92CF92DF92EF92FF920F931F9397
:102F7000CF93DF93EC01D62EC42E59010E945A162E
:102F80007C01009709F445C0FC0180819181892B67
:102F900009F441C04C2D6D2DCE010E940C17F50196
:102FA000918380830097C9F1FC0182818695869583
:102FB00090E08031910514F08FE090E041E050E026
:102FC00060E070E04A015B0104C0880C991CAA1CF7
:102FD000BB1C8A95D2F7D501C4010197F8019183F2
:102FE00080836D2D80EE0E949B1788ED0E948A17CA
:102FF000F7019481992331F0CA58DF4F68816260EC
:10300000682B02C0682F697F88ED0E949B1780E0C3
:1030100005C086ED03C087ED01C08BEDDF91CF9138
:103020001F910F91FF90EF90DF90CF90BF90AF90E6
:103030009F908F9008958F929F92AF92BF92CF9260
:10304000DF92EF92FF920F931F93CF93DF93862E21
:10305000942E59010E9462146B017C0128E8C20E73
:1030600023E1D21EE11CF11C00E010E0D0E0C0E042
:1030700098280E946214DC01CB018C199D09AE09CD
:10308000BF09B7FF2DC0692D80EF0E949B170E94DA
:103090006214DC01CB018C199D09AE09BF09B7FF91
:1030A00009C088EC0E948A1787FFF1CF60E888EC9E
:1030B0000E949B1788EF0E948A17C82FCF70C430D8
:1030C00019F0CE3051F00CC00F5F1F4FA114B104A6
:1030D00081F20A151B0569F603C0DF5FD33049F69C
:1030E0008C2FDF91CF911F910F91FF90EF90DF9088
:1030F000CF90BF90AF909F908F9008959F92AF9286
:10310000BF92CF92DF92EF92FF920F931F93CF93D4
:10311000DF937C01D42F122F902E00E06C01C60E9D
:10312000D11CC60ED11C86E5C80ED11CA42EB12C14
:10313000ABE2AA0EB11CAA0CBB1CAE0CBF1CF60164
:1031400080819181DC01ED91FC910280F381E02D81
:10315000292D412F6D2F0995803EC9F4D1110BC047
:1031600061E088EE0E949B1766E670E080E090E0E8
:103170000E94931414C0F50180819181DC01ED91CE
:10318000FC910284F385E02D612F099508C08D30F4
:1031900021F4033008F03FC014C081113FC0F60194
:1031A00080819181DC01ED91FC910190F081E02D15
:1031B000292D412F6D2F0995C82F8D3051F40330E3
:1031C00050F464E670E080E090E00E9493140F5F9A
:1031D000B6CF882311F1D1110BC061E088EE0E94B7
:1031E0009B1766E670E080E090E00E94931411C0A7
:1031F000ED2FF0E0BB96EE0FFF1FEE0DFF1D80815F
:103200009181DC01ED91FC910284F385E02D612F29
:1032100009958C2F03C08DE001C080E0DF91CF9134
:103220001F910F91FF90EF90DF90CF90BF90AF90E4
:103230009F9008950F931F93CF93DF93182F062F1E
:10324000EA010E94881712601EBDFE01802F8823AC
:1032500039F00DB407FEFDCF91919EBD8150F7CF9F
:10326000C00FD11D0DB407FEFDCF0E943202CE016A
:10327000DF91CF911F910F9108952F923F924F921E
:103280005F926F927F928F929F92AF92BF92CF92F6
:10329000DF92EF92FF920F931F93CF93DF9300D0B3
:1032A00000D01F92CDB7DEB77D836C834A016901E0
:1032B000FB01F1808FEF8F0D803408F074C00E9405
:1032C00062142B013C01F8E84F0EF3E15F1E611C14
:1032D000711CEC81FD81828180FD02C060E401C02F
:1032E00060E888EE0E949B17312C8F2D90E09A8326
:1032F0008983C114D10409F448C0E980FA80CE144E
:10330000DF0408F47601EB82A8016E2D80E10E94B3
:103310001A196E2D88E30E949B17EC81FD81608154
:10332000606280EF0E949B1788EC0E948A1787FFDB
:10333000FBCF60E888EC0E949B1788EF0E948A17F9
:103340008F70382EA12CB12C212C332009F46BC0A6
:103350000E946214DC01CB0184199509A609B70902
:10336000B7FF61C0F6E03F1601F12EE0321609F416
:1033700055C084E0381209C0FFEFAF1ABF0A8114AC
:10338000910449F1A814B90431F588EF0E948A1715
:1033900085FB882780F9EC81FD81928180FB90F983
:1033A0009283832D45C08AED43C088EF0E948A171F
:1033B00085FB882780F991E08927EC81FD81928146
:1033C00080FB90F9928390FD02C060E401C060E848
:1033D00088EE0E949B1760E088E30E949B17F8012B
:1033E000608180E10E949B176B8188E30E949B179C
:1033F000EC81FD816081606280EF0E949B1788EC08
:103400000E948A1787FFFBCF60E888EC0E949B1719
:1034100088EF0E948A178F70382E97CF239423E06D
:103420002212D9CFB2CFCE18DF080E0D1F1D61CFEB
:103430000F900F900F900F900F90DF91CF911F91F1
:103440000F91FF90EF90DF90CF90BF90AF909F9043
:103450008F907F906F905F904F903F902F90089546
:10346000AF92BF92CF92DF92EF92FF920F931F9392
:10347000CF93DF9300D000D0CDB7DEB77C016901D8
:1034800058011C821B821A8219828E010F5F1F4F06
:103490009E012D5F3F4F0E94AE17811109C04981E7
:1034A0005A816B817C8185019601C7010E943D197B
:1034B0000F900F900F900F90DF91CF911F910F9170
:1034C000FF90EF90DF90CF90BF90AF9008952F9234
:1034D0003F924F925F926F927F928F929F92AF92A4
:1034E000BF92CF92DF92EF92FF920F931F93CF93F1
:1034F000DF93CDB7DEB72A970FB6F894DEBF0FBEC5
:10350000CDBF1C016B015B834A835901D9016D90CA
:103510007C901197FB01F181F9831D921C92DB01D4
:1035200012968C9181FD02C060E101C060E288EEDC
:103530000E949B178E2D90E0A0E0B0E08C839D83CD
:10354000AE83BF8368862A813B81D6014C9160E0BF
:10355000C1010E941B18F82EB6E08B1318C088EF2B
:103560000E948A1782958170E1E08E27D60112961B
:103570009C91129780FB91F912969C9391FD02C049
:1035800060E101C060E288EE0E949B17DCCF8111F0
:1035900067C088EC0E948A1782FF60C080E30E94A7
:1035A0008A17582E90E06816790608F45884F501B9
:1035B000808191819301281B390B3A87298737FF36
:1035C00002C01A861986852C912C89859A858816C1
:1035D000990614F49A86898649840E94881798E08F
:1035E0009EBD0DB407FEFDCFF801442041F01EBC86
:1035F0004A940DB407FEFDCF8EB58193F6CFA98511
:10360000BA850A0F1B1F0E94320264E088EC0E94F8
:103610009B17F50180819181880E991E918280828D
:10362000F9815F1618F08614970470F088EF0E94F5
:103630008A1782958170D60112969C91129780FB11
:1036400091F912969C930CC0EE2009F47CCF6C810A
:103650007D818E819F810E94931475CF80EFF82E1B
:103660008F2D2A960FB6F894DEBF0FBECDBFDF9127
:10367000CF911F910F91FF90EF90DF90CF90BF906F
:10368000AF909F908F907F906F905F904F903F9002
:103690002F9008952F923F924F925F926F927F9258
:1036A0008F929F92AF92BF92CF92DF92EF92FF9252
:1036B0000F931F93CF93DF93CDB7DEB761970FB60C
:1036C000F894DEBF0FBECDBF3C01F42E322E202E6B
:1036D000C98A4EA05FA0C8A4D9A4188A1F861E86D6
:1036E0001D868E01035F1F4F9E01215F3F4F0E9489
:1036F000AE17811196C039822A82EB8289898C8328
:10370000BE82AD8298868F82AE014F5F5F4F68E0C8
:1037100080E20E941A192D853E854F2D60E1C3017C
:103720000E941B18E82E811178C0932D9078392EB5
:10373000C114D10409F462C0EF85F889828199230C
:1037400009F44DC082608283540122242394A11481
:10375000B10409F458C05C864B864D855E856F8543
:103760007889E12C86019E01255F3F4FC3010E94AD
:10377000671AE82EA6E08A130FC00F85188988EF14
:103780000E948A1785FB882780F98225F80192819B
:1037900080FB91F99283DBCF81113FC08AA59BA565
:1037A0000097A1F0DC01ED91FC9111970190F0815F
:1037B000E02DC4018A199B099A8789876B857C85CE
:1037C0009E01275F3F4FA601CD0109958B859C8502
:1037D000A81AB90A8415950508F0B9CF0FC0816001
:1037E00082834D855E8586019201BF01C3010E94DF
:1037F0003D19811116C02D853E8511C02D853E8550
:10380000311005C00CC0E11008C02D853E8560EA6E
:103810004F2DC3010E941B1804C08E2D02C060E80A
:10382000F7CF61960FB6F894DEBF0FBECDBFDF9124
:10383000CF911F910F91FF90EF90DF90CF90BF90AD
:10384000AF909F908F907F906F905F904F903F9040
:103850002F9008958F929F92AF92BF92CF92EF9246
:103860000F931F931F921F921F930F933F932F93BA
:103870004901A12CB12CCC24C394E12C06E020E812
:103880000E944A1B0F900F900F900F900F900F9077
:103890001F910F91EF90CF90BF90AF909F908F901E
:1038A00008958F929F92AF92BF92CF92EF92FF9224
:1038B0000F931F921F92FF92EF923F932F93490114
:1038C000A12CB12C22E0C22EE02E06E020E80E94BE
:1038D0004A1B0F900F900F900F900F900F900F9129
:1038E000FF90EF90CF90BF90AF909F908F900895F2
:1038F0008F929F92AF92BF92CF92EF920F93CF93FE
:103900001F921F921F921F921F921F92812C912C27
:10391000A12CB12CC12CE22E05E020E00E944A1B14
:10392000C82F6CE271E080E090E00E9493140F9049
:103930000F900F900F900F900F908C2FCF910F91B1
:10394000EF90CF90BF90AF909F908F9008950F937E
:103950001F93CF93DF938A3F3FEF930711F486EDD8
:103960002DC0DC011696ED91FC911797EF2B09F114
:10397000122F242FEC011A8740E00E940116082F15
:103980008823C9F0682FCE010E945A16009739F398
:10399000FC011483202F40E060E0CE010E94781CDF
:1039A000182F882351F0602FCE010E94BA16812F64
:1039B00005C087ED03C084ED01C080E0DF91CF91A9
:1039C0001F910F9108952F923F924F925F926F92A5
:1039D0007F928F929F92AF92BF92CF92DF92EF929F
:1039E000FF920F931F93CF93DF93CDB7DEB7669708
:1039F0000FB6F894DEBF0FBECDBF1B8A38E03C8BFC
:103A00003CE33D8B8A3F3FEF930709F464C0522E9D
:103A1000342E462E7C01DC011696CD90DC90179753
:103A2000CE01439617969C938E9316971A962C93D5
:103A30008E010F5F1F4F22E130E040E060E0C701E0
:103A40000E942A1CF701D782C6828111A6C08984F0
:103A50009A846B847C84FD81FE8B2E80670136E521
:103A6000C30ED11C560110E0D5018D919C91009799
:103A7000F1F1DC01ED91FC910084F185E02D0995D7
:103A8000811135C0F50180819181DC01ED91FC91BE
:103A90000088F189E02D622D0995882341F1F50117
:103AA00080819181DC01ED91FC910484F585E02D0C
:103AB000A301B4010995811110C0F50180819181A4
:103AC000DC01ED91FC910684F785E02D6E89099566
:103AD000811103C00CC086ED60C0052D232D442D3F
:103AE000612FC7010E947E18813D09F056C01F5FFB
:103AF000B2E0AB0EB11C103109F0B6CF10E0F60108
:103B0000808191810097E1F1DC01ED91FC910084CD
:103B1000F185E02D0995811133C0F60180819181F5
:103B2000DC01ED91FC910088F189E02D622D099571
:103B30008823D9F0F60180819181DC01ED91FC911F
:103B40000484F585E02DA301B4010995811118C005
:103B5000F60180819181DC01ED91FC910684F7856D
:103B6000E02D6E89099581110BC0052D232D442D63
:103B7000612FC7010E947E18982F977F913D69F4AD
:103B80001F5FE2E0CE0ED11C103109F0B8CF252D19
:103B9000432D642DC7010E94A71C66960FB6F894AA
:103BA000DEBF0FBECDBFDF91CF911F910F91FF9070
:103BB000EF90DF90CF90BF90AF909F908F907F90CD
:103BC0006F905F904F903F902F9008958F929F92AB
:103BD000AF92BF92CF92EF920F931F921F921F92BC
:103BE0001F921F921F92812C912CA12CB12CC12CC1
:103BF000E22E09E020E00E944A1B0F900F900F90E8
:103C00000F900F900F900F91EF90CF90BF90AF90CB
:103C10009F908F9008958F929F92AF92BF92CF9274
:103C2000DF92EF920F931F93CF93DF9300D000D0DA
:103C3000CDB7DEB76C01590148011C821B821A8284
:103C400019828E010F5F1F4F9E012D5F3F4F0E9413
:103C5000AE1749815A816B817C8184019501C6012F
:103C60000E94671A0F900F900F900F90DF91CF91E5
:103C70001F910F91EF90DF90CF90BF90AF909F90EA
:103C80008F900895AF92BF92CF92DF92EF92FF9202
:103C90000F931F93CF938C011D990EC088EC0E9447
:103CA0008A1785FF05C0C8010E944D0260E201C06D
:103CB00060E088EC0E949B1780918002813039F08F
:103CC00040F0823079F0833039F5C1E00CC083E1F7
:103CD00006C080916307807F8031F1F081E180939D
:103CE00063071AC0C0E080916307807F8031A9F428
:103CF0000E946214DC01CB0188539F4FAF4FBF4F2E
:103D000080935F0790936007A0936107B093620769
:103D100080E28093630701C0C0E0780186E5E80E89
:103D2000F11C6801A6E7CA0ED11C5701F50181916B
:103D300091915F01009739F0DC01ED91FC910680D3
:103D4000F781E02D0995AC14BD0481F780916307DC
:103D5000803409F43FC050F4803221F18033A1F166
:103D6000813109F082C0F60110820AC0813509F460
:103D700058C0803809F46AC0803509F076C039C06F
:103D8000D7018D919D917D01009739F0DC01ED9176
:103D9000FC910480F581E02D0995EC14FD0481F778
:103DA00082E161C00E94621400915F071091600778
:103DB0002091610730916207DC01CB01801B910BE0
:103DC000A20BB30BB7FD51C061E088EE0E949B17B8
:103DD00080E449C088EE0E948A1780FD46C088EDC5
:103DE0000E948A17682F686088ED0E949B1780E503
:103DF0003AC088EC0E948A1786FF37C081E580931D
:103E000063070E946214DC01CB014496A11DB11D21
:103E100080935F0790936007A0936107B093620758
:103E200024C00E946214C0905F07D0906007E090A9
:103E30006107F0906207DC01CB018C199D09AE0986
:103E4000BF09B7FD12C080E8809363072C2F40E0C4
:103E500060E0C8010E94E31C882321F0823D29F024
:103E600080EA01C080E980936307CF911F910F9191
:103E7000FF90EF90DF90CF90BF90AF90089580E0DB
:103E80000895089580E0089580E0089581E0089500
:103E9000FC018285089581E0693009F080E0089591
:103EA000CF93DF93EC018A819B81DC01ED91FC9142
:103EB0000480F581E02D6A8509958A85813439F47D
:103EC000EA81FB81EA58FF4F8081846080831A86F3
:103ED0001B861C861D861E861F86188A80E0DF9141
:103EE000CF9108958F929F92AF92BF92CF92EF920F
:103EF0000F93A42EB12CB22A1F921F921F921F92D1
:103F00001F921F92812C912CC12CE62E01E023E2FE
:103F100040E0FC016285828193810E944A1B0F90E0
:103F20000F900F900F900F900F900F91EF90CF90F8
:103F3000BF90AF909F908F9008958F929F92AF9275
:103F4000BF92CF92EF920F93A62EB12C1F921F9289
:103F50003F932F935F934F934A01C12CE12C00E0D4
:103F600023EA40E0FC016285828193810E944A1B22
:103F70000F900F900F900F900F900F900F91EF9068
:103F8000CF90BF90AF909F908F9008958F929F9207
:103F9000AF92BF92CF92EF920F93A42EB12CB22A80
:103FA0001F921F921F921F921F921F92812C912C81
:103FB000C12CE62E03E023E240E0FC016285828111
:103FC00093810E944A1B0F900F900F900F900F90BB
:103FD0000F900F91EF90CF90BF90AF909F908F90E8
:103FE00008952F923F924F925F926F927F928F929D
:103FF0009F92AF92BF92CF92DF92EF92FF920F9378
:104000001F93CF93DF93CDB7DEB7E8970FB6F89441
:10401000DEBF0FBECDBFDC011A963C91311107C146
:10402000122F242E362E3C01FC01C280D380D601F3
:10403000ED91FC910190F081E02D60E0C6010995C1
:104040007C01009709F4F5C0FC01A080B180A114A7
:10405000B10409F4F0C04301F4E08F0E911CDC01BF
:1040600011969C928E9214961C93FE0131962F010C
:104070008F0128E030E040E060E0D30112968D919E
:104080009C9113970E942A1CF70114828111D9C0B8
:104090008D81893009F0D1C00981D601ED91FC9163
:1040A0000280F381E02D222D41E0632DC6010995A8
:1040B000F3018287882309F4C2C098859583282F4D
:1040C00040E060E0828193810E94781C182F882351
:1040D00089F0D701AD92BC92D601ED91FC9104809C
:1040E000F581E02DD3011A966C91C6010995F30173
:1040F0001286ABC0202F013208F020E2D701AD922A
:10410000BC9221110BC0940142E0F30162858281CF
:1041100093810E942917811197C010C030E082015D
:1041200040E0D3011A966C911A9712968D919C914A
:1041300013970E942A1C811187C0E5CF1F921F92FE
:104140005F924F921F9288E08F9388E0882E912C87
:10415000A12CB12C99E2C92EE12C06E020EA40E026
:10416000F3016285828193810E944A1B182F0F9070
:104170000F900F900F900F900F90811166C08B8160
:10418000D3011B968C931B97720100E028E030E06E
:1041900040E01A966C911A9712968D919C91139704
:1041A0000E94511C811150C02B813C8140E0F301E1
:1041B0006285828193810E94511C811145C02981B1
:1041C00030E0CE0181967C0140E0D3011A966C91DB
:1041D0001A9712968D919C9113970E94511C8111F0
:1041E00033C02E8140E0F3016285828193810E9479
:1041F000E61D811129C001E0D3011B968C91801727
:1042000040F020E0402F68E0C3010E94C61F0F5F0E
:10421000F3CFD3011296ED91FC911397EA58FF4F1B
:1042200080818460808381E050968C930EC019ED6C
:104230000CC016ED0AC017ED08C011ED06C014ED54
:1042400004C0F701B182A082182F812FE8960FB623
:10425000F894DEBF0FBECDBFDF91CF911F910F91BC
:10426000FF90EF90DF90CF90BF90AF909F908F9096
:104270007F906F905F904F903F902F900895CF92D6
:10428000DF92FF920F931F93CF93DF9300D000D064
:10429000CDB7DEB78C01F62E19821A821B821C82E2
:1042A00020E0462F61E10E94721F20E04F2D60E167
:1042B000C8010E94721F20E04F2D64E0C8010E94D7
:1042C000C61F83E0C82ED12C9E012F5F3F4F44E0D4
:1042D00050E06F2DC8010E949D1F8823F1F020E05F
:1042E0004F2D64E1C8010E94721F20E04F2D60E154
:1042F000C8010E94721F64E170E080E090E00E94BB
:1043000093140F900F900F900F90DF91CF911F910A
:104310000F91FF90DF90CF90089589819A81AB81B2
:10432000BC819D7F83309140A041B105C1F264E61C
:1043300070E080E090E00E94931481E0C81AD108F8
:1043400019F6CDCFFC018DE791E0918380837383D3
:104350006283128613861486158616861786108A3F
:10436000148288E085839CE3968391E0978380871D
:1043700084E0818761157105B1F0DB01AA5ABF4F56
:1043800080E090E02D913D91232B49F48B96880F8E
:10439000991FDB01A80FB91FED93FC9308950196B7
:1043A0008031910579F70895EF92FF920F931F9353
:1043B000CF938C01C62F7A01FA0180819181A2816D
:1043C000B3818130F3E09F07F1E0AF07B105D1F091
:1043D00060F48115E1E09E07AE07B10571F181300F
:1043E0009140A140B10571F064C0833021E0920793
:1043F00020E1A207B105E1F183309340A041B1056E
:10440000B9F157C080916407811153C020E04C2F4F
:1044100061E1C8010E94721F20E04C2F60E1C801D9
:104420000E94721F20E04C2F64E0C8010E94C61F4A
:1044300081E08093640781EB3DC020E0462F61E17D
:10444000C8010E94721F20E04C2F60E1C8010E9449
:10445000721F10926407F80162856770C770660F5B
:10446000660F660F6C2B828193810E94461721C0D4
:1044700020E04C2F64E1C8010E94721F20E04C2F05
:1044800060E1C8010E94721F64E170E080E090E08A
:104490000E949314F8016285F7012181269521700D
:1044A00067704C2FF801828193810E94E31C109267
:1044B000640780E0CF911F910F91FF90EF900895D6
:1044C000CF92DF92EF920F931F93CF93DF93CDB7ED
:1044D000DEB72E970FB6F894DEBF0FBECDBF6C01CE
:1044E00081E090E09E878D87E12C8E010F5F1F4F4A
:1044F0009E01235F3F4F41E0F601628582819381F7
:104500000E940B1E811151C002E011E089818023BD
:10451000D1F019861A861B861C869E01275F3F4FA5
:1045200044E050E0612FC6010E949D1F81110BC025
:10453000AE01475F5F4F612FC6010E94D421813BCE
:1045400099F1811132C0000F1F5F1830F9F611E0A8
:10455000F6018385811740F119861A861B861C8611
:104560009E01275F3F4F44E050E0612FC6010E944B
:104570009D1F811117C089859A8587709170813040
:10458000914081F48B859C8581609C878B87AE01EF
:10459000475F5F4F612FC6010E94D421813B21F00C
:1045A000811103C01F5FD4CF80E02E960FB6F89420
:1045B000DEBF0FBECDBFDF91CF911F910F91EF9066
:1045C000DF90CF9008950F931F93CF93DF93FC015B
:1045D0002089211102C080E020C0EC010E946214F9
:1045E0000C851D852E853F85DC01CB01801B910B41
:1045F000A20BB30BB7FDEFCFCE010E946022182FA4
:104600000E946214DC01CB018C599F4FAF4FBF4F0A
:104610008C879D87AE87BF87812FDF91CF911F91B8
:104620000F910895FC01858D08958C5A9F4FFC01D0
:10463000808108956E3584E0780739F06D3A9BE10A
:10464000790719F06E32764161F4493197E05907E4
:1046500051F0413982E0580731F081E04A3A524046
:1046600019F080E0089581E00895CF93DF93EC0185
:104670001E8A1F8A188E198E1A8E8B8D9C8DDC01D6
:10468000ED91FC910480F581E02D6D8D09951D8ED5
:10469000CC5ADF4F188280E0DF91CF9108956F925E
:1046A0007F928F929F92AF92BF92CF92DF92EF92C2
:1046B000FF920F931F93CF93DF93CDB7DEB762972F
:1046C0000FB6F894DEBF0FBECDBFDC015D963C9106
:1046D000311177C0122F642E762E7C01FC01A38C41
:1046E000B48CD501ED91FC910190F081E02D60E05A
:1046F000C50109956C01009709F465C0FC01808033
:1047000091808114910409F460C0C7014E96918391
:10471000808314838E010F5F1F4F22E130E040E061
:1047200060E0D7015B968D919C915C970E942A1C5A
:10473000182FF60191828082811134C089859A8573
:104740008E35F4E09F0739F08D3A2BE1920719F08E
:104750008E32964159F58B859C858931B7E09B0750
:1047600041F08139E2E09E0721F0895A9240029798
:10477000E8F4D501ED91FC910280F381E02D262D26
:1047800040E0672DC5010995F701858F8823F9F071
:104790008885878F64E170E080E090E00E94931448
:1047A00080EE16C08D3019F011EE01C011EDD70169
:1047B000ED91FC910480F581E02DC7010995812FD1
:1047C00007C089ED05C086ED03C087ED01C084ED0B
:1047D00062960FB6F894DEBF0FBECDBFDF91CF91CA
:1047E0001F910F91FF90EF90DF90CF90BF90AF900F
:1047F0009F908F907F906F900895CF92DF92EF926D
:10480000FF920F931F93CF93DF93EC01022FEB8C5A
:10481000FC8CD701ED91FC910190F081E02D6D8D24
:10482000C70109956C01892B11F486ED7EC06CE2FD
:1048300071E080E090E00E9493142D8D40E060E0F4
:104840008B8D9C8D0E94781C182F882319F0F601FF
:10485000148263C0D60114961C92D701ED91FC918D
:104860000190F081E02D6D8DC70109950097E9F267
:10487000FC0104837E01FEE1EF0EF11C970141E093
:104880006D8D8B8D9C8D0E942917182F811145C02D
:1048900001E009A333E027E090E29AA384E08BA330
:1048A0000CA39DA38EA33FA398A789A73AA79BA774
:1048B0008CA735E03DA79EA78FA738AB99AB8AABF5
:1048C0002BAB9CAB8DAB2EAB9FAB88AF970149E078
:1048D0006D8D8B8D9C8D0E942917182F81111DC005
:1048E00068EC70E080E090E00E94931421E04E8D2F
:1048F0006D8D8B8D9C8D0E94E61D182F81110DC032
:104900000E8BFE01EC5AFF4F0083CB51DF4F188214
:1049100019821A821B8280E008C0E881F981048034
:10492000F581E02DCE010995812FDF91CF911F9167
:104930000F91FF90EF90DF90CF9008950F931F930A
:10494000CF93DF93DC0183E991E011969C938E93E2
:104950005C967C936E935B975D961C925D97FD01D0
:10496000EC5AFF4F1082FD0180E090E0168E582F28
:10497000811102C028E001C020E0278F8C01000FC8
:10498000111F9801280F391F2A0F3B1FE90148A169
:104990004E7F4D7F48A3511102C03FE001C031E07E
:1049A000E801C80FD91FCA0FDB1F330F330F28A12F
:1049B0002370322B38A30196339681319105B1F6DD
:1049C00061157105C1F0FB01EA5AFF4F20E030E0AC
:1049D00081919191892B51F4255D3F4F220F331F17
:1049E000FB01E20FF31FB183A08305C02F5F3F4F90
:1049F0002031310569F7DF91CF911F910F91089513
:104A000050E0683059F4FA01EE0FFF1FEE0FFF1F60
:104A1000E80FF91FEB5AFF4F81810895693059F46F
:104A2000FA01EE0FFF1FEE0FFF1FE80FF91FEB5A01
:104A3000FF4F80810895E62FF0E0EE0FFF1FEB5946
:104A4000FE4F25913491FA01EE0FFF1FEE0FFF1F6D
:104A5000E80FF91FEB5AFF4FC901A0E0B0E0DC01FD
:104A60009927882740815181628173814823592386
:104A70006A237B2381E0452B462B472B09F480E0FA
:104A800008959C0150E0683031F4480F591FFA0135
:104A9000E352FF4F07C0693051F4480F591FFA0124
:104AA000EF51FF4F8081882331F110820895E62F66
:104AB000F0E0EE0FFF1FEB59FE4FA591B491440FAC
:104AC000551FF901E40FF51FEB58FF4F608171810D
:104AD000FD01E623F72391E0EF2B09F490E0420F6C
:104AE000531FFA01EB58FF4FA095B0956A237B2323
:104AF00071836083892F089524E0429F800D911D6A
:104B00001124FC01EF57FF4F208181819281613197
:104B100010F4962339F4681729F081E0621719F030
:104B200080E0089581E00895CF939C0184E0489F40
:104B3000A0011124F901E40FF51FEF55FF4F80810B
:104B40009181A281B381792F613198F4C62FCA2354
:104B500081F0462F50E060E070E0BA01552744270D
:104B6000409550956095709584239523A623B7238F
:104B700013C0671308C0420F531FFA01EF55FF4FD0
:104B80009927BB2709C068130DC0420F531FFA01B4
:104B9000EF55FF4F8827BB2780839183A283B38380
:104BA00081E001C080E0CF91089524E0429FA00100
:104BB0001124460F511D440F551F840F951FFC01F2
:104BC000EB54FF4F8081918108958F929F92AF9215
:104BD000BF92DF92EF92FF920F931F93CF93DF93D9
:104BE000EC018A017901613041F068F0623041F0F6
:104BF0006330A9F548E0D42E08C064E0D62E05C085
:104C000056E0D52E02C032E0D32E0E94621480906E
:104C1000650790906607A0906707B09068076815D1
:104C200079058A059B0589F38D2D90E0FC01EE0F37
:104C3000FF1F8E0F9F1FFE01E80FF91F9701468D82
:104C40006D8D8B8D9C8D0E94301A0E946214609332
:104C50006507709366078093670790936807DF91F5
:104C6000CF911F910F91FF90EF90DF90BF90AF9089
:104C70009F908F900895AC01435F5E4F2CE0FA0146
:104C800011922A95E9F7FA01108231961082319635
:104C900028E02083319620EC20832CE030E00C9437
:104CA000E525742FAC01435F5E4F2CE0FA011192B1
:104CB0002A95E9F7FA01108231961082319628E0A0
:104CC00020833196262F206420832CE030E0672F4C
:104CD0000C94E525AC01435F5E4F2CE0FA01119284
:104CE0002A95E9F728E0FA0120833196108231965F
:104CF0002FE02083319620EC20832CE030E00C94D0
:104D0000E525AC01435F5E4F2CE0FA0111922A9534
:104D1000E9F7FA01108231961082319610823196AD
:104D200020E420832CE030E00C94E525CF93DF9342
:104D3000EC01AC01435F5E4F8CE0FA01982F1192B9
:104D40009A95E9F7FA0110823196108231968083A4
:104D500031968BE180832CE030E0CE010E94E52586
:104D6000CF5ADF4F81E08883DF91CF910895CF93B1
:104D7000DF93EC01AC01435F5E4F8CE0FA01982FAA
:104D800011929A95E9F7FA011082319610823196C4
:104D9000808331968FE180832CE030E0CE010E9449
:104DA000E525CF5ADF4F81E08883DF91CF910895C9
:104DB000AC01435F5E4F2CE0FA01322F11923A951D
:104DC000E9F7FA01108231961082319620833196EC
:104DD0002EE120832CE030E00C94E525362F622F65
:104DE000FC01E35FFE4F2CE0DF011D922A95E9F7FD
:104DF0001082DC01A25FBE4F21E02C9311962FE0C0
:104E00002C93119620EC2C9311961C9211963C93A6
:104E100011964C932CE030E0AF010C94E5258F9275
:104E20009F92AF92BF92CF92DF92EF92FF920F9339
:104E30001F93CF93DF9300D0CDB7DEB76C01F62E72
:104E40005C0183EFA81A8EEFB80A8CE0F50111928D
:104E50008A95E9F7462F60E0C6010E94512668E076
:104E600070E080E090E00E94931462E06F0D4F2D9F
:104E7000C6010E945126F5011082319610823196AA
:104E800082E08083319680E880832CE030E0A501C9
:104E90006F2DC6010E94E5256F2DC6010E94812657
:104EA000FF2041F0F1E0FF1639F082E0F81631F012
:104EB00087E005C081E003C083E001C085E020E217
:104EC00030E03A83298346019DEE890E911CA82E7D
:104ED000B12CC501880F991FA80EB91EAC0CBD1CC2
:104EE000E12C84019E012F5F3F4FF501468DF601B5
:104EF000658D838D948D0E940B1E9E012F5F3F4F09
:104F0000F501468DF601658D838D948D0E940B1EF3
:104F100062E070E080E090E00E94931466E06F0D24
:104F20004F2DC6010E9451260F900F90DF91CF9117
:104F30001F910F91FF90EF90DF90CF90BF90AF90B7
:104F40009F908F9008954F925F926F927F928F9271
:104F50009F92AF92BF92CF92DF92EF92FF920F9308
:104F60001F93CF93DF939C018C0103511F4F09F4D2
:104F700054C1D8019C91119693FF21C08C91F901E5
:104F8000E60FF11D47898417D1F0878B8823A9F09C
:104F900081E0828BC901DF91CF911F910F91FF902A
:104FA000EF90DF90CF90BF90AF909F908F907F90C9
:104FB0006F905F904F900C940F27128A2EC18C91A6
:104FC00081111DC0F901E051FF4F8081837109F407
:104FD0001FC1D901AF50BF4F8C91823208F418C164
:104FE000260F311D260F311DD901AB52BF4F8081D5
:104FF00091819827892798278D939C930EC19111B1
:1050000007C1813009F0A6C0462F50E0F901E40F36
:10501000F51F8789811102C080E8878BD901AD50C7
:10502000BF4F6D917D918D919C910E94EF364B0108
:105030005C01CA01880F991F880F991F3901680EFA
:10504000791ED301AB5ABF4F8D929D92AD92BC9207
:105050001397DA01C3E0AA0FBB1FCA95E1F7A20FAD
:10506000B31F6D01C5EBCC0ED11C7901D7EFED0E4E
:10507000F11CE701E880F980E601F982E8826D0120
:10508000D7EBCD0ED11C790169EFE60EF11CE701DB
:1050900068817981E601798368836D01D9EBCD0E52
:1050A000D11C79016BEFE60EF11CE7016881798173
:1050B000E601798368837D01DBEBED0EF11CD901FC
:1050C000A350BF4F6D917C91D7016D937C93E30109
:1050D000CB59DF4FC880D980EA80FB808C149D04B7
:1050E000AE04BF0409F494C0C1E0DF01A358BF4F70
:1050F000CC93DA01AA0FBB1FA20FB31FAB58BF4F4F
:10510000B701A6014095509560957095AB01662753
:105110007727250166247724442155214D935C93FC
:10512000C11006C0882021F0DF01AF51BF4FCC93E2
:10513000D11006C0992021F0E352FF4F41E0408397
:10514000280F391FF901EB59FF4F80829182A2820B
:10515000B3825EC0823009F05BC0F901EB5FFE4FA5
:105160008081811148C0319640813196808190E0E4
:10517000A0E0B0E0BA2FA92F982F8827A42B319652
:105180004081842BE62EF12CF901C4E06C9FE00DE8
:10519000F11D1124EF01CF57DF4F88839983AA8334
:1051A000BB836F01D1E9CD0ED11CE6014881598145
:1051B0006A817B8184179507A607B70749F12E0DF1
:1051C0003F1D2F543F4FFF24F394E901F882EF5520
:1051D000FF4F4095509560957095482359236A2359
:1051E0007B234083518362837383F60180839183A1
:1051F000A283B3830DC0803F59F4F901EA5FFE4FEB
:105200008081833029F4F901E60FF11D81E0828B62
:1052100080E2D8011D928A95E9F7DF91CF911F9125
:105220000F91FF90EF90DF90CF90BF90AF909F9045
:105230008F907F906F905F904F90089550E0DA01CB
:10524000AA0FBB1FAA0FBB1F20E030E0F901EA0F35
:10525000FB1FE80FF91F72817F3F59F4440F551F60
:10526000440F551F480F591FFA01E20FF31F6283C5
:1052700008952F5F3F4F2430310541F70895CF93B4
:10528000DF93EC0124E0629FC00DD11D11242A811F
:105290002F3FE9F0AC01435F5E4F3CE0FA01732F12
:1052A00011927A95E9F7FA011082319610823196BF
:1052B0003083319620832CE030E00E94E5258B81FD
:1052C0008A838C818B838D818C838FEF8D83DF919B
:1052D000CF9108956F927F928F929F92AF92BF92DB
:1052E000CF92DF92EF92FF920F931F93CF93DF93B2
:1052F00000D0CDB7DEB7FC01EC5AFF4F208122234E
:1053000009F4D2C06C010E946214560129EEA20E6B
:10531000B11CF5010081118122813381DC01CB01B7
:10532000801B910BA20BB30B8B3F9105A105B1051F
:1053300080F010E0612FC6010E943F291F5F1430EA
:10534000C9F70E946214F50160837183828393839D
:1053500063C00E9462144601F5EE8F0E911CF401A9
:105360000081118122813381DC01CB01801B910BF3
:10537000A20BB30B853C9940A105B10508F44CC0C4
:10538000560116E0FF24FA940AEF010F8091690795
:10539000823019F12CF4882391F08130A9F030C0CB
:1053A000843051F124F1853059F50E946214F401E2
:1053B0006083718382839383F092690721C0602F99
:1053C000C6010E946A261CC0F50187898823C1F0A6
:1053D000602FC6010E94812604C0F50187898823B9
:1053E00079F0402F612FC6010E94512609C0602F1D
:1053F000C6010E94B72604C0602FC6010E94D826AD
:10540000FFEFAF1ABF0A1F5F1A3009F0BDCF8091BE
:1054100069078F5F809369075601F12C30E2832E74
:10542000912C36012DEE620E711CF50182898823C4
:1054300031F06F2DC6010E949626F501128AFF20D9
:1054400041F0F1E0FF1639F022E0F21631F087E08A
:1054500005C081E003C083E001C085E09A828982B3
:1054600090E0FC01EE0FFF1F8E0F9F1FF601E80F6B
:10547000F91FE12C83019E012F5F3F4F468DF601FE
:10548000658D838D948D0E940B1E89819A81892B55
:1054900021F06F2DC6010E94A327F394FFEFAF1AEE
:1054A000BF0A24E0F212C1CF80E00F900F90DF918D
:1054B000CF911F910F91FF90EF90DF90CF90BF9011
:1054C000AF909F908F907F906F900895FC018581A1
:1054D0000895FC01818908956E3584E0780759F0BC
:1054E0006D3A9BE1790739F06E3286E1780719F061
:1054F0006F367E40A1F44E3882E0580791F0463175
:1055000090EF590771F0413084E0580751F081E085
:10551000433192E0590739F04F3E5E4B21F080E075
:10552000089581E008950895CF93DF93EC011A82E6
:105530008B819C81DC01ED91FC910480F581E02D53
:105540006D8109951D82198A80E0DF91CF910895C0
:10555000FC018BEA91E091838083748363831582DD
:10556000118A168288E087838CE3808711861286F1
:1055700084E0838714861586868761157105B1F0EE
:10558000DB01AA5ABF4F80E090E02D913D91232B83
:1055900049F48B96880F991FDB01A80FB91FED9373
:1055A000FC93089501968031910579F708958F92C3
:1055B0009F92AF92BF92CF92DF92EF92FF920F93A2
:1055C0001F93FC01E83D8FEFF80709F44AC080A55E
:1055D000811147C081A5843109F043C062A573A53C
:1055E00084A595A50E94EF36628B738B848B958B77
:1055F00026A537A5358F248F20A931A9378F268F6F
:1056000022A933A931A320A324A935A933A322A316
:1056100006891789208D318D6017710782079307DE
:1056200001F168017901C094D094E094F0944701AD
:10563000AA24BB246C01EE24FF24C820D920D38ED9
:10564000C28E011104C0662311F041E047A311117D
:1056500004C0772311F021E026A3668B778B808F1F
:10566000918F1F910F91FF90EF90DF90CF90BF909F
:10567000AF909F908F900895CF92DF92EF920F930B
:105680001F93CF93DF9300D0CDB7DEB7FC01218904
:105690002223A9F06C0180E290E09A8389838F0134
:1056A000085D1F4FE12C9E012F5F3F4F41856581B3
:1056B000838194810E940B1EC6010E94D72A80E03C
:1056C0000F900F90DF91CF911F910F91EF90DF908E
:1056D000CF900895DC01683019F453968C910895A9
:1056E000693019F452968C910895E62FF0E0EE0F90
:1056F000FF1FE757FE4F4591549160E070E0BA01FB
:105700005527442752968D919D910D90BC91A02DC7
:10571000482359236A237B2381E0452B462B472BC3
:1057200009F480E00895860F911D860F911DFC01FC
:10573000848D958D08950F931F93FC019A018B0121
:1057400044856581838194810E94301A61E070E014
:1057500080E090E01F910F910C949314FC01E85BA2
:10576000FF4F21E02083DC01A75BBF4F23E02C9398
:1057700011966C9343E050E0BF010C949B2BFC010D
:10578000E85BFF4F1082DC01A75BBF4F28E02C9342
:1057900011961C9211966C9311964C9311961C9233
:1057A00011961C9211961C9248E050E0BF010C9497
:1057B0009B2B6F927F928F929F92AF92BF92CF92CC
:1057C000EF920F93CF93DF93CDB7DEB766970FB607
:1057D000F894DEBF0FBECDBF3C011F921F921F92F7
:1057E0001F921F9282E08F9382E0882E912C99E085
:1057F000A92E94E0B92E23E0C22E32E0E32E06E07B
:1058000020E8D30116964C91169715966C91159732
:1058100013968D919C9114970E944A1B61E070E051
:1058200080E090E00E9493141F921F92CE01019697
:105830009F938F931F928AE08F9342E2842E912C44
:1058400020E8F30146816581838194810E944A1B8F
:1058500061E070E080E090E00E94931480913A0152
:1058600090913B01A0913C018C8B9D8BAE8B8091E4
:105870003D0190913E01A0913F01898B9A8BAB8BAA
:105880008091400190914101A09142018E879F87B4
:10589000A88B1B8683E08C871D8643E050E0BE0109
:1058A0006C5E7F4FC3010E949B2B43E050E0BE0122
:1058B0006F5E7F4FC3010E949B2B43E050E0BE010F
:1058C000625F7F4FC3010E949B2B43E050E0BE010B
:1058D000655F7F4FC3010E949B2BD3011F96ED9103
:1058E000FC9150970FB6F894DEBF0FBECDBF309736
:1058F00011F0099507C0EEEAF1E064916C5FC30115
:105900000E94AE2B66960FB6F894DEBF0FBECDBFD9
:10591000DF91CF910F91EF90CF90BF90AF909F907C
:105920008F907F906F9008952F923F924F925F9249
:105930006F927F928F929F92AF92BF92CF92DF929F
:10594000EF92FF920F931F93CF93DF93CDB7DEB704
:1059500062970FB6F894DEBF0FBECDBFDC0115967F
:105960005C905110F4C0422E242E362E7C01FC0196
:10597000C380D480D601ED91FC910190F081E02D9F
:1059800060E0C60109955C01009719F436ED532ECD
:10599000E6C0FC01608071806114710409F4DAC012
:1059A0004701F6E08F0E911CDC0111969C928E92BD
:1059B00014964C928E010F5F1F4F22E130E040E0C1
:1059C00060E0F701838194810E942A1C182FD50181
:1059D0006D927C928111B1C089859A858E35B4E033
:1059E0009B0781F08D3AEBE19E0761F08E32F6E184
:1059F0009F0741F08F362EE0920721F088339740C1
:105A000009F09AC08B859C858E38B2E09B07C1F067
:105A10008631E0EF9E07A1F08130F4E09F0781F02E
:105A2000833122E0920761F08F3EAEEB9A0741F09E
:105A30008A33B0EF9B0721F08833974409F07CC08C
:105A4000D601ED91FC910280F381E02D222D40E002
:105A5000632DC6010995F7018583882309F47DC06C
:105A600098859783282F40E060E0838194810E948D
:105A7000781C182FD601ED91FC91D50114961C923B
:105A8000882359F00480F581E02DD70115966C919B
:105A9000C6010995F701158258C00190F081E02DEB
:105AA000D70115966C91C6010995009709F46ECF40
:105AB000FC014482940141E0D70115966C91159741
:105AC00013968D919C9114970E942917182F81117C
:105AD00034C001E0F701018790E2928784E0838778
